{
  "abi": [
    {
      "inputs": [
        {
          "internalType": "uint8",
          "name": "index",
          "type": "uint8"
        }
      ],
      "name": "checkMaxForIndex",
      "outputs": [],
      "stateMutability": "pure",
      "type": "function"
    },
    {
      "inputs": [
        {
          "internalType": "uint256",
          "name": "input",
          "type": "uint256"
        }
      ],
      "name": "checkSqrt",
      "outputs": [],
      "stateMutability": "pure",
      "type": "function"
    }
  ],
  "evm": {
    "bytecode": {
      "linkReferences": {},
      "object": "608060405234801561001057600080fd5b506101aa806100206000396000f3fe608060405234801561001057600080fd5b50600436106100365760003560e01c8063922ab1e21461003b578063e4134de51461005a575b600080fd5b6100586004803603602081101561005157600080fd5b503561007a565b005b6100586004803603602081101561007057600080fd5b503560ff166100db565b600061008582610122565b905070010000000000000000000000000000000081106100a157fe5b816002820a11156100ae57fe5b816002826001010a11806100d157506fffffffffffffffffffffffffffffffff81145b6100d757fe5b5050565b61011f8160ff1660ff146100f8578160010160ff1660020a61011a565b7fffffffffffffffffffffffffffffffffffffffffffffffffffffffffffffffff5b61007a565b50565b60006003821115610165575080600160028204015b8181101561015f5780915060028182858161014e57fe5b04018161015757fe5b049050610137565b5061016f565b811561016f575060015b91905056fea26469706673582212205612b814b7131690fcd527df2d2985077b96e9c59064ebae0d7fa8e1008f207d64736f6c634300060c0033",
      "opcodes": "PUSH1 0x80 PUSH1 0x40 MSTORE CALLVALUE DUP1 ISZERO PUSH2 0x10 JUMPI PUSH1 0x0 DUP1 REVERT JUMPDEST POP PUSH2 0x1AA DUP1 PUSH2 0x20 PUSH1 0x0 CODECOPY PUSH1 0x0 RETURN INVALID PUSH1 0x80 PUSH1 0x40 MSTORE CALLVALUE DUP1 ISZERO PUSH2 0x10 JUMPI PUSH1 0x0 DUP1 REVERT JUMPDEST POP PUSH1 0x4 CALLDATASIZE LT PUSH2 0x36 JUMPI PUSH1 0x0 CALLDATALOAD PUSH1 0xE0 SHR DUP1 PUSH4 0x922AB1E2 EQ PUSH2 0x3B JUMPI DUP1 PUSH4 0xE4134DE5 EQ PUSH2 0x5A JUMPI JUMPDEST PUSH1 0x0 DUP1 REVERT JUMPDEST PUSH2 0x58 PUSH1 0x4 DUP1 CALLDATASIZE SUB PUSH1 0x20 DUP2 LT ISZERO PUSH2 0x51 JUMPI PUSH1 0x0 DUP1 REVERT JUMPDEST POP CALLDATALOAD PUSH2 0x7A JUMP JUMPDEST STOP JUMPDEST PUSH2 0x58 PUSH1 0x4 DUP1 CALLDATASIZE SUB PUSH1 0x20 DUP2 LT ISZERO PUSH2 0x70 JUMPI PUSH1 0x0 DUP1 REVERT JUMPDEST POP CALLDATALOAD PUSH1 0xFF AND PUSH2 0xDB JUMP JUMPDEST PUSH1 0x0 PUSH2 0x85 DUP3 PUSH2 0x122 JUMP JUMPDEST SWAP1 POP PUSH17 0x100000000000000000000000000000000 DUP2 LT PUSH2 0xA1 JUMPI INVALID JUMPDEST DUP2 PUSH1 0x2 DUP3 EXP GT ISZERO PUSH2 0xAE JUMPI INVALID JUMPDEST DUP2 PUSH1 0x2 DUP3 PUSH1 0x1 ADD EXP GT DUP1 PUSH2 0xD1 JUMPI POP PUSH16 0xFFFFFFFFFFFFFFFFFFFFFFFFFFFFFFFF DUP2 EQ JUMPDEST PUSH2 0xD7 JUMPI INVALID JUMPDEST POP POP JUMP JUMPDEST PUSH2 0x11F DUP2 PUSH1 0xFF AND PUSH1 0xFF EQ PUSH2 0xF8 JUMPI DUP2 PUSH1 0x1 ADD PUSH1 0xFF AND PUSH1 0x2 EXP PUSH2 0x11A JUMP JUMPDEST PUSH32 0xFFFFFFFFFFFFFFFFFFFFFFFFFFFFFFFFFFFFFFFFFFFFFFFFFFFFFFFFFFFFFFFF JUMPDEST PUSH2 0x7A JUMP JUMPDEST POP JUMP JUMPDEST PUSH1 0x0 PUSH1 0x3 DUP3 GT ISZERO PUSH2 0x165 JUMPI POP DUP1 PUSH1 0x1 PUSH1 0x2 DUP3 DIV ADD JUMPDEST DUP2 DUP2 LT ISZERO PUSH2 0x15F JUMPI DUP1 SWAP2 POP PUSH1 0x2 DUP2 DUP3 DUP6 DUP2 PUSH2 0x14E JUMPI INVALID JUMPDEST DIV ADD DUP2 PUSH2 0x157 JUMPI INVALID JUMPDEST DIV SWAP1 POP PUSH2 0x137 JUMP JUMPDEST POP PUSH2 0x16F JUMP JUMPDEST DUP2 ISZERO PUSH2 0x16F JUMPI POP PUSH1 0x1 JUMPDEST SWAP2 SWAP1 POP JUMP INVALID LOG2 PUSH5 0x6970667358 0x22 SLT KECCAK256 JUMP SLT 0xB8 EQ 0xB7 SGT AND SWAP1 0xFC 0xD5 0x27 0xDF 0x2D 0x29 DUP6 SMOD PUSH28 0x96E9C59064EBAE0D7FA8E1008F207D64736F6C634300060C00330000 "
    }
  }
}