{
  "abi": [
    {
      "inputs": [
        {
          "internalType": "uint256",
          "name": "num",
          "type": "uint256"
        }
      ],
      "name": "getGasCostOfSqrt",
      "outputs": [
        {
          "internalType": "uint256",
          "name": "",
          "type": "uint256"
        }
      ],
      "stateMutability": "view",
      "type": "function"
    },
    {
      "inputs": [
        {
          "internalType": "uint256",
          "name": "num",
          "type": "uint256"
        }
      ],
      "name": "sqrt",
      "outputs": [
        {
          "internalType": "uint256",
          "name": "",
          "type": "uint256"
        }
      ],
      "stateMutability": "pure",
      "type": "function"
    }
  ],
  "evm": {
    "bytecode": {
      "linkReferences": {},
      "object": "608060405234801561001057600080fd5b50610125806100206000396000f3fe6080604052348015600f57600080fd5b506004361060325760003560e01c8063677342ce146037578063821f4924146063575b600080fd5b605160048036036020811015604b57600080fd5b5035607d565b60408051918252519081900360200190f35b605160048036036020811015607757600080fd5b5035608e565b600060868260a5565b90505b919050565b6000805a9050609b8360a5565b505a900392915050565b6000600382111560e2575080600160028204015b8181101560dd5780915060028182858160ce57fe5b04018160d657fe5b04905060b9565b506089565b811560895750600191905056fea2646970667358221220a197f4bcf05d01882b9b50f884c43724382bc1a62a7ce9399e60322c1b3409cd64736f6c634300060c0033",
      "opcodes": "PUSH1 0x80 PUSH1 0x40 MSTORE CALLVALUE DUP1 ISZERO PUSH2 0x10 JUMPI PUSH1 0x0 DUP1 REVERT JUMPDEST POP PUSH2 0x125 DUP1 PUSH2 0x20 PUSH1 0x0 CODECOPY PUSH1 0x0 RETURN INVALID PUSH1 0x80 PUSH1 0x40 MSTORE CALLVALUE DUP1 ISZERO PUSH1 0xF JUMPI PUSH1 0x0 DUP1 REVERT JUMPDEST POP PUSH1 0x4 CALLDATASIZE LT PUSH1 0x32 JUMPI PUSH1 0x0 CALLDATALOAD PUSH1 0xE0 SHR DUP1 PUSH4 0x677342CE EQ PUSH1 0x37 JUMPI DUP1 PUSH4 0x821F4924 EQ PUSH1 0x63 JUMPI JUMPDEST PUSH1 0x0 DUP1 REVERT JUMPDEST PUSH1 0x51 PUSH1 0x4 DUP1 CALLDATASIZE SUB PUSH1 0x20 DUP2 LT ISZERO PUSH1 0x4B JUMPI PUSH1 0x0 DUP1 REVERT JUMPDEST POP CALLDATALOAD PUSH1 0x7D JUMP JUMPDEST PUSH1 0x40 DUP1 MLOAD SWAP2 DUP3 MSTORE MLOAD SWAP1 DUP2 SWAP1 SUB PUSH1 0x20 ADD SWAP1 RETURN JUMPDEST PUSH1 0x51 PUSH1 0x4 DUP1 CALLDATASIZE SUB PUSH1 0x20 DUP2 LT ISZERO PUSH1 0x77 JUMPI PUSH1 0x0 DUP1 REVERT JUMPDEST POP CALLDATALOAD PUSH1 0x8E JUMP JUMPDEST PUSH1 0x0 PUSH1 0x86 DUP3 PUSH1 0xA5 JUMP JUMPDEST SWAP1 POP JUMPDEST SWAP2 SWAP1 POP JUMP JUMPDEST PUSH1 0x0 DUP1 GAS SWAP1 POP PUSH1 0x9B DUP4 PUSH1 0xA5 JUMP JUMPDEST POP GAS SWAP1 SUB SWAP3 SWAP2 POP POP JUMP JUMPDEST PUSH1 0x0 PUSH1 0x3 DUP3 GT ISZERO PUSH1 0xE2 JUMPI POP DUP1 PUSH1 0x1 PUSH1 0x2 DUP3 DIV ADD JUMPDEST DUP2 DUP2 LT ISZERO PUSH1 0xDD JUMPI DUP1 SWAP2 POP PUSH1 0x2 DUP2 DUP3 DUP6 DUP2 PUSH1 0xCE JUMPI INVALID JUMPDEST DIV ADD DUP2 PUSH1 0xD6 JUMPI INVALID JUMPDEST DIV SWAP1 POP PUSH1 0xB9 JUMP JUMPDEST POP PUSH1 0x89 JUMP JUMPDEST DUP2 ISZERO PUSH1 0x89 JUMPI POP PUSH1 0x1 SWAP2 SWAP1 POP JUMP INVALID LOG2 PUSH5 0x6970667358 0x22 SLT KECCAK256 LOG1 SWAP8 DELEGATECALL 0xBC CREATE 0x5D ADD DUP9 0x2B SWAP12 POP 0xF8 DUP5 0xC4 CALLDATACOPY 0x24 CODESIZE 0x2B 0xC1 0xA6 0x2A PUSH29 0xE9399E60322C1B3409CD64736F6C634300060C00330000000000000000 "
    }
  }
}