{
  "abi": [
    {
      "inputs": [
        {
          "internalType": "uint256",
          "name": "input",
          "type": "uint256"
        }
      ],
      "name": "mostSignificantBitInvariant",
      "outputs": [],
      "stateMutability": "pure",
      "type": "function"
    }
  ],
  "evm": {
    "bytecode": {
      "linkReferences": {},
      "object": "608060405234801561001057600080fd5b506101d6806100206000396000f3fe608060405234801561001057600080fd5b506004361061002b5760003560e01c8063f94ac90e14610030575b600080fd5b61004d6004803603602081101561004657600080fd5b503561004f565b005b600061005a82610090565b90508060ff1660020a82101561006c57fe5b8060ff1660ff148061008657508060010160ff1660020a82105b61008c57fe5b5050565b600080821161010057604080517f08c379a000000000000000000000000000000000000000000000000000000000815260206004820152600d60248201527f4269744d6174683a205a45524f00000000000000000000000000000000000000604482015290519081900360640190fd5b700100000000000000000000000000000000821061012057608091821c91015b68010000000000000000821061013857604091821c91015b640100000000821061014c57602091821c91015b62010000821061015e57601091821c91015b610100821061016f57600891821c91015b6010821061017f57600491821c91015b6004821061018f57600291821c91015b6002821061019b576001015b91905056fea264697066735822122070ee741751c61deb4e102bec33896d58609ae97e7bc3219cb81f7572713aa8cd64736f6c634300060c0033",
      "opcodes": "PUSH1 0x80 PUSH1 0x40 MSTORE CALLVALUE DUP1 ISZERO PUSH2 0x10 JUMPI PUSH1 0x0 DUP1 REVERT JUMPDEST POP PUSH2 0x1D6 DUP1 PUSH2 0x20 PUSH1 0x0 CODECOPY PUSH1 0x0 RETURN INVALID PUSH1 0x80 PUSH1 0x40 MSTORE CALLVALUE DUP1 ISZERO PUSH2 0x10 JUMPI PUSH1 0x0 DUP1 REVERT JUMPDEST POP PUSH1 0x4 CALLDATASIZE LT PUSH2 0x2B JUMPI PUSH1 0x0 CALLDATALOAD PUSH1 0xE0 SHR DUP1 PUSH4 0xF94AC90E EQ PUSH2 0x30 JUMPI JUMPDEST PUSH1 0x0 DUP1 REVERT JUMPDEST PUSH2 0x4D PUSH1 0x4 DUP1 CALLDATASIZE SUB PUSH1 0x20 DUP2 LT ISZERO PUSH2 0x46 JUMPI PUSH1 0x0 DUP1 REVERT JUMPDEST POP CALLDATALOAD PUSH2 0x4F JUMP JUMPDEST STOP JUMPDEST PUSH1 0x0 PUSH2 0x5A DUP3 PUSH2 0x90 JUMP JUMPDEST SWAP1 POP DUP1 PUSH1 0xFF AND PUSH1 0x2 EXP DUP3 LT ISZERO PUSH2 0x6C JUMPI INVALID JUMPDEST DUP1 PUSH1 0xFF AND PUSH1 0xFF EQ DUP1 PUSH2 0x86 JUMPI POP DUP1 PUSH1 0x1 ADD PUSH1 0xFF AND PUSH1 0x2 EXP DUP3 LT JUMPDEST PUSH2 0x8C JUMPI INVALID JUMPDEST POP POP JUMP JUMPDEST PUSH1 0x0 DUP1 DUP3 GT PUSH2 0x100 JUMPI PUSH1 0x40 DUP1 MLOAD PUSH32 0x8C379A000000000000000000000000000000000000000000000000000000000 DUP2 MSTORE PUSH1 0x20 PUSH1 0x4 DUP3 ADD MSTORE PUSH1 0xD PUSH1 0x24 DUP3 ADD MSTORE PUSH32 0x4269744D6174683A205A45524F00000000000000000000000000000000000000 PUSH1 0x44 DUP3 ADD MSTORE SWAP1 MLOAD SWAP1 DUP2 SWAP1 SUB PUSH1 0x64 ADD SWAP1 REVERT JUMPDEST PUSH17 0x100000000000000000000000000000000 DUP3 LT PUSH2 0x120 JUMPI PUSH1 0x80 SWAP2 DUP3 SHR SWAP2 ADD JUMPDEST PUSH9 0x10000000000000000 DUP3 LT PUSH2 0x138 JUMPI PUSH1 0x40 SWAP2 DUP3 SHR SWAP2 ADD JUMPDEST PUSH5 0x100000000 DUP3 LT PUSH2 0x14C JUMPI PUSH1 0x20 SWAP2 DUP3 SHR SWAP2 ADD JUMPDEST PUSH3 0x10000 DUP3 LT PUSH2 0x15E JUMPI PUSH1 0x10 SWAP2 DUP3 SHR SWAP2 ADD JUMPDEST PUSH2 0x100 DUP3 LT PUSH2 0x16F JUMPI PUSH1 0x8 SWAP2 DUP3 SHR SWAP2 ADD JUMPDEST PUSH1 0x10 DUP3 LT PUSH2 0x17F JUMPI PUSH1 0x4 SWAP2 DUP3 SHR SWAP2 ADD JUMPDEST PUSH1 0x4 DUP3 LT PUSH2 0x18F JUMPI PUSH1 0x2 SWAP2 DUP3 SHR SWAP2 ADD JUMPDEST PUSH1 0x2 DUP3 LT PUSH2 0x19B JUMPI PUSH1 0x1 ADD JUMPDEST SWAP2 SWAP1 POP JUMP INVALID LOG2 PUSH5 0x6970667358 0x22 SLT KECCAK256 PUSH17 0xEE741751C61DEB4E102BEC33896D58609A 0xE9 PUSH31 0x7BC3219CB81F7572713AA8CD64736F6C634300060C00330000000000000000 "
    }
  }
}