{
  "abi": [
    {
      "inputs": [
        {
          "components": [
            {
              "internalType": "uint224",
              "name": "_x",
              "type": "uint224"
            }
          ],
          "internalType": "struct FixedPoint.uq112x112",
          "name": "self",
          "type": "tuple"
        }
      ],
      "name": "decode",
      "outputs": [
        {
          "internalType": "uint112",
          "name": "",
          "type": "uint112"
        }
      ],
      "stateMutability": "pure",
      "type": "function"
    },
    {
      "inputs": [
        {
          "components": [
            {
              "internalType": "uint256",
              "name": "_x",
              "type": "uint256"
            }
          ],
          "internalType": "struct FixedPoint.uq144x112",
          "name": "self",
          "type": "tuple"
        }
      ],
      "name": "decode144",
      "outputs": [
        {
          "internalType": "uint144",
          "name": "",
          "type": "uint144"
        }
      ],
      "stateMutability": "pure",
      "type": "function"
    },
    {
      "inputs": [
        {
          "components": [
            {
              "internalType": "uint224",
              "name": "_x",
              "type": "uint224"
            }
          ],
          "internalType": "struct FixedPoint.uq112x112",
          "name": "self",
          "type": "tuple"
        },
        {
          "components": [
            {
              "internalType": "uint224",
              "name": "_x",
              "type": "uint224"
            }
          ],
          "internalType": "struct FixedPoint.uq112x112",
          "name": "other",
          "type": "tuple"
        }
      ],
      "name": "divuq",
      "outputs": [
        {
          "components": [
            {
              "internalType": "uint224",
              "name": "_x",
              "type": "uint224"
            }
          ],
          "internalType": "struct FixedPoint.uq112x112",
          "name": "",
          "type": "tuple"
        }
      ],
      "stateMutability": "pure",
      "type": "function"
    },
    {
      "inputs": [
        {
          "internalType": "uint112",
          "name": "x",
          "type": "uint112"
        }
      ],
      "name": "encode",
      "outputs": [
        {
          "components": [
            {
              "internalType": "uint224",
              "name": "_x",
              "type": "uint224"
            }
          ],
          "internalType": "struct FixedPoint.uq112x112",
          "name": "",
          "type": "tuple"
        }
      ],
      "stateMutability": "pure",
      "type": "function"
    },
    {
      "inputs": [
        {
          "internalType": "uint144",
          "name": "x",
          "type": "uint144"
        }
      ],
      "name": "encode144",
      "outputs": [
        {
          "components": [
            {
              "internalType": "uint256",
              "name": "_x",
              "type": "uint256"
            }
          ],
          "internalType": "struct FixedPoint.uq144x112",
          "name": "",
          "type": "tuple"
        }
      ],
      "stateMutability": "pure",
      "type": "function"
    },
    {
      "inputs": [
        {
          "internalType": "uint112",
          "name": "numerator",
          "type": "uint112"
        },
        {
          "internalType": "uint112",
          "name": "denominator",
          "type": "uint112"
        }
      ],
      "name": "fraction",
      "outputs": [
        {
          "components": [
            {
              "internalType": "uint224",
              "name": "_x",
              "type": "uint224"
            }
          ],
          "internalType": "struct FixedPoint.uq112x112",
          "name": "",
          "type": "tuple"
        }
      ],
      "stateMutability": "pure",
      "type": "function"
    },
    {
      "inputs": [
        {
          "components": [
            {
              "internalType": "uint224",
              "name": "_x",
              "type": "uint224"
            }
          ],
          "internalType": "struct FixedPoint.uq112x112",
          "name": "self",
          "type": "tuple"
        },
        {
          "components": [
            {
              "internalType": "uint224",
              "name": "_x",
              "type": "uint224"
            }
          ],
          "internalType": "struct FixedPoint.uq112x112",
          "name": "other",
          "type": "tuple"
        }
      ],
      "name": "getGasCostOfDivuq",
      "outputs": [
        {
          "internalType": "uint256",
          "name": "",
          "type": "uint256"
        }
      ],
      "stateMutability": "view",
      "type": "function"
    },
    {
      "inputs": [
        {
          "components": [
            {
              "internalType": "uint224",
              "name": "_x",
              "type": "uint224"
            }
          ],
          "internalType": "struct FixedPoint.uq112x112",
          "name": "self",
          "type": "tuple"
        },
        {
          "components": [
            {
              "internalType": "uint224",
              "name": "_x",
              "type": "uint224"
            }
          ],
          "internalType": "struct FixedPoint.uq112x112",
          "name": "other",
          "type": "tuple"
        }
      ],
      "name": "getGasCostOfMuluq",
      "outputs": [
        {
          "internalType": "uint256",
          "name": "",
          "type": "uint256"
        }
      ],
      "stateMutability": "view",
      "type": "function"
    },
    {
      "inputs": [
        {
          "components": [
            {
              "internalType": "uint224",
              "name": "_x",
              "type": "uint224"
            }
          ],
          "internalType": "struct FixedPoint.uq112x112",
          "name": "self",
          "type": "tuple"
        }
      ],
      "name": "getGasCostOfSqrt",
      "outputs": [
        {
          "internalType": "uint256",
          "name": "",
          "type": "uint256"
        }
      ],
      "stateMutability": "view",
      "type": "function"
    },
    {
      "inputs": [
        {
          "components": [
            {
              "internalType": "uint224",
              "name": "_x",
              "type": "uint224"
            }
          ],
          "internalType": "struct FixedPoint.uq112x112",
          "name": "self",
          "type": "tuple"
        },
        {
          "internalType": "uint256",
          "name": "y",
          "type": "uint256"
        }
      ],
      "name": "mul",
      "outputs": [
        {
          "components": [
            {
              "internalType": "uint256",
              "name": "_x",
              "type": "uint256"
            }
          ],
          "internalType": "struct FixedPoint.uq144x112",
          "name": "",
          "type": "tuple"
        }
      ],
      "stateMutability": "pure",
      "type": "function"
    },
    {
      "inputs": [
        {
          "components": [
            {
              "internalType": "uint224",
              "name": "_x",
              "type": "uint224"
            }
          ],
          "internalType": "struct FixedPoint.uq112x112",
          "name": "self",
          "type": "tuple"
        },
        {
          "internalType": "int256",
          "name": "y",
          "type": "int256"
        }
      ],
      "name": "muli",
      "outputs": [
        {
          "internalType": "int256",
          "name": "",
          "type": "int256"
        }
      ],
      "stateMutability": "pure",
      "type": "function"
    },
    {
      "inputs": [
        {
          "components": [
            {
              "internalType": "uint224",
              "name": "_x",
              "type": "uint224"
            }
          ],
          "internalType": "struct FixedPoint.uq112x112",
          "name": "self",
          "type": "tuple"
        },
        {
          "components": [
            {
              "internalType": "uint224",
              "name": "_x",
              "type": "uint224"
            }
          ],
          "internalType": "struct FixedPoint.uq112x112",
          "name": "other",
          "type": "tuple"
        }
      ],
      "name": "muluq",
      "outputs": [
        {
          "components": [
            {
              "internalType": "uint224",
              "name": "_x",
              "type": "uint224"
            }
          ],
          "internalType": "struct FixedPoint.uq112x112",
          "name": "",
          "type": "tuple"
        }
      ],
      "stateMutability": "pure",
      "type": "function"
    },
    {
      "inputs": [
        {
          "components": [
            {
              "internalType": "uint224",
              "name": "_x",
              "type": "uint224"
            }
          ],
          "internalType": "struct FixedPoint.uq112x112",
          "name": "self",
          "type": "tuple"
        }
      ],
      "name": "reciprocal",
      "outputs": [
        {
          "components": [
            {
              "internalType": "uint224",
              "name": "_x",
              "type": "uint224"
            }
          ],
          "internalType": "struct FixedPoint.uq112x112",
          "name": "",
          "type": "tuple"
        }
      ],
      "stateMutability": "pure",
      "type": "function"
    },
    {
      "inputs": [
        {
          "components": [
            {
              "internalType": "uint224",
              "name": "_x",
              "type": "uint224"
            }
          ],
          "internalType": "struct FixedPoint.uq112x112",
          "name": "self",
          "type": "tuple"
        }
      ],
      "name": "sqrt",
      "outputs": [
        {
          "components": [
            {
              "internalType": "uint224",
              "name": "_x",
              "type": "uint224"
            }
          ],
          "internalType": "struct FixedPoint.uq112x112",
          "name": "",
          "type": "tuple"
        }
      ],
      "stateMutability": "pure",
      "type": "function"
    }
  ],
  "evm": {
    "bytecode": {
      "linkReferences": {},
      "object": "608060405234801561001057600080fd5b50611592806100206000396000f3fe608060405234801561001057600080fd5b50600436106100ea5760003560e01c8063892584511161008c578063c814e31411610066578063c814e314146101f7578063ca2d02991461020a578063ca74fcc01461021d578063d993d37914610230576100ea565b806389258451146101b1578063af35b769146101c4578063b1acad5c146101e4576100ea565b80634fd04a40116100c85780634fd04a401461013e5780635a6066891461015e5780635f9f4c3b146101715780636d173f7114610191576100ea565b806331f92b13146100ef5780633f1626c8146101185780634de4cf921461012b575b600080fd5b6101026100fd3660046110fa565b610243565b60405161010f91906114c9565b60405180910390f35b6101026101263660046110fa565b61026a565b610102610139366004611214565b610289565b61015161014c3660046110fa565b6102a4565b60405161010f91906114fb565b61010261016c36600461113f565b6102bd565b61018461017f3660046110fa565b6102eb565b60405161010f9190611516565b6101a461019f36600461113f565b610304565b60405161010f9190611278565b6101a46101bf366004611115565b610336565b6101d76101d2366004611173565b610350565b60405161010f91906114f1565b6101a46101f23660046110fa565b610370565b6101d761020536600461123f565b610392565b6101026102183660046111f9565b6103a3565b61010261022b36600461113f565b6103b4565b6101a461023e36600461113f565b6103e2565b61024b6110a0565b61026261025d36849003840184611185565b610409565b90505b919050565b6102726110a0565b61026261028436849003840184611185565b6104f2565b6102916110a0565b61029b8383610652565b90505b92915050565b60006102626102b836849003840184611185565b610715565b6102c56110a0565b61029b6102d736859003850185611185565b6102e636859003850185611185565b61072c565b60006102626102ff368490038401846111d4565b6109a8565b6000805a905061032b61031c36869003860186611185565b6102e636869003860186611185565b505a90039392505050565b600061029b61034a36859003850185611185565b836109af565b6103586110b2565b61029b61036a36859003850185611185565b83610a76565b6000805a905061038861028436859003850185611185565b505a900392915050565b61039a6110b2565b61026282610b04565b6103ab6110a0565b61026282610b45565b6103bc6110a0565b61029b6103ce36859003850185611185565b6103dd36859003850185611185565b610b82565b6000805a905061032b6103fa36869003860186611185565b6103dd36869003860186611185565b6104116110a0565b600182600001517bffffffffffffffffffffffffffffffffffffffffffffffffffffffff1611610476576040517f08c379a000000000000000000000000000000000000000000000000000000000815260040161046d906112b8565b60405180910390fd5b604051806020016040528083600001517bffffffffffffffffffffffffffffffffffffffffffffffffffffffff167c0100000000000000000000000000000000000000000000000000000000816104c957fe5b047bffffffffffffffffffffffffffffffffffffffffffffffffffffffff168152509050919050565b6104fa6110a0565b815171ffffffffffffffffffffffffffffffffffff7bffffffffffffffffffffffffffffffffffffffffffffffffffffffff9091161161059557604051806020016040528061056e607085600001517bffffffffffffffffffffffffffffffffffffffffffffffffffffffff16901b610e35565b7bffffffffffffffffffffffffffffffffffffffffffffffffffffffff1690529050610265565b60006105c283600001517bffffffffffffffffffffffffffffffffffffffffffffffffffffffff16610e86565b60ff03905060028160ff16816105d457fe5b0681039050604051806020016040528060028360700360ff16816105f457fe5b0460ff166106298460ff1687600001517bffffffffffffffffffffffffffffffffffffffffffffffffffffffff16901b610e35565b901b7bffffffffffffffffffffffffffffffffffffffffffffffffffffffff1690529392505050565b61065a6110a0565b6000826dffffffffffffffffffffffffffff16116106a4576040517f08c379a000000000000000000000000000000000000000000000000000000000815260040161046d9061145d565b6040805160208101909152806dffffffffffffffffffffffffffff84167bffffffffffffffffffffffffffff0000000000000000000000000000607087901b16816106eb57fe5b047bffffffffffffffffffffffffffffffffffffffffffffffffffffffff16815250905092915050565b5160701c6dffffffffffffffffffffffffffff1690565b6107346110a0565b82517bffffffffffffffffffffffffffffffffffffffffffffffffffffffff16158061077d575081517bffffffffffffffffffffffffffffffffffffffffffffffffffffffff16155b15610797575060408051602081019091526000815261029e565b825182516dffffffffffffffffffffffffffff607083811c8216938216929081901c82169190811690828502908285029083870290858702907bffffffffffffffffffffffffffffffffffffffffffffffffffffffff85161115610827576040517f08c379a000000000000000000000000000000000000000000000000000000000815260040161046d90611315565b6000607060ff16847bffffffffffffffffffffffffffffffffffffffffffffffffffffffff16901c7bffffffffffffffffffffffffffffffffffffffffffffffffffffffff16827bffffffffffffffffffffffffffffffffffffffffffffffffffffffff16847bffffffffffffffffffffffffffffffffffffffffffffffffffffffff16607060ff16887bffffffffffffffffffffffffffffffffffffffffffffffffffffffff16901b7bffffffffffffffffffffffffffffffffffffffffffffffffffffffff1601010190507fffffffffffffffffffffffffffffffffffffffffffffffffffffffffffffffff7bffffffffffffffffffffffffffffffffffffffffffffffffffffffff1681111561096c576040517f08c379a000000000000000000000000000000000000000000000000000000000815260040161046d90611492565b60408051602081019091527bffffffffffffffffffffffffffffffffffffffffffffffffffffffff90911681529b9a5050505050505050505050565b5160701c90565b600080610a0084600001517bffffffffffffffffffffffffffffffffffffffffffffffffffffffff16600085126109e657846109eb565b846000035b6e010000000000000000000000000000610f60565b90507f80000000000000000000000000000000000000000000000000000000000000008110610a5b576040517f08c379a000000000000000000000000000000000000000000000000000000000815260040161046d90611381565b60008312610a695780610a6e565b806000035b949350505050565b610a7e6110b2565b6000821580610ab957505082517bffffffffffffffffffffffffffffffffffffffffffffffffffffffff1682810290838281610ab657fe5b04145b610aef576040517f08c379a000000000000000000000000000000000000000000000000000000000815260040161046d90611426565b60408051602081019091529081529392505050565b610b0c6110b2565b50604080516020810190915260709190911b7fffffffffffffffffffffffffffffffffffff000000000000000000000000000016815290565b610b4d6110a0565b50604080516020810190915260709190911b7bffffffffffffffffffffffffffff000000000000000000000000000016815290565b610b8a6110a0565b81517bffffffffffffffffffffffffffffffffffffffffffffffffffffffff16610be0576040517f08c379a000000000000000000000000000000000000000000000000000000000815260040161046d90611281565b815183517bffffffffffffffffffffffffffffffffffffffffffffffffffffffff90811691161415610c2f575060408051602081019091526e010000000000000000000000000000815261029e565b825171ffffffffffffffffffffffffffffffffffff7bffffffffffffffffffffffffffffffffffffffffffffffffffffffff90911611610d4957815183516000917bffffffffffffffffffffffffffffffffffffffffffffffffffffffff169060701b7fffffffffffffffffffffffffffffffffffff00000000000000000000000000001681610cbb57fe5b0490507bffffffffffffffffffffffffffffffffffffffffffffffffffffffff811115610d14576040517f08c379a000000000000000000000000000000000000000000000000000000000815260040161046d906113ef565b6040518060200160405280827bffffffffffffffffffffffffffffffffffffffffffffffffffffffff1681525091505061029e565b6000610da96e01000000000000000000000000000085600001517bffffffffffffffffffffffffffffffffffffffffffffffffffffffff1685600001517bffffffffffffffffffffffffffffffffffffffffffffffffffffffff16610f60565b90507bffffffffffffffffffffffffffffffffffffffffffffffffffffffff811115610e01576040517f08c379a000000000000000000000000000000000000000000000000000000000815260040161046d906113ef565b60408051602081019091527bffffffffffffffffffffffffffffffffffffffffffffffffffffffff90911681529392505050565b60006003821115610e78575080600160028204015b81811015610e7257809150600281828581610e6157fe5b040181610e6a57fe5b049050610e4a565b50610265565b811561026557506001919050565b6000808211610ec1576040517f08c379a000000000000000000000000000000000000000000000000000000000815260040161046d9061134a565b7001000000000000000000000000000000008210610ee157608091821c91015b680100000000000000008210610ef957604091821c91015b6401000000008210610f0d57602091821c91015b620100008210610f1f57601091821c91015b6101008210610f3057600891821c91015b60108210610f4057600491821c91015b60048210610f5057600291821c91015b6002821061026557600101919050565b6000806000610f6f8686610fe5565b9150915060008480610f7d57fe5b868809905082811115610f91576001820391505b8083039250848210610fcf576040517f08c379a000000000000000000000000000000000000000000000000000000000815260040161046d906113b8565b610fda838387611030565b979650505050505050565b600080807fffffffffffffffffffffffffffffffffffffffffffffffffffffffffffffffff84860990508385029250828103915082811015611028576001820391505b509250929050565b6000818103821680838161104057fe5b04925080858161104c57fe5b04945080816000038161105b57fe5b60028581038087028203028087028203028087028203028087028203028087028203028087028203029586029003909402930460010193909302939093010292915050565b60408051602081019091526000815290565b6040518060200160405280600081525090565b6000602082840312156110d6578081fd5b50919050565b80356dffffffffffffffffffffffffffff8116811461029e57600080fd5b60006020828403121561110b578081fd5b61029b83836110c5565b60008060408385031215611127578081fd5b61113184846110c5565b946020939093013593505050565b60008060408385031215611151578182fd5b61115b84846110c5565b915061116a84602085016110c5565b90509250929050565b60008060408385031215611127578182fd5b600060208284031215611196578081fd5b6111a06020611535565b82357bffffffffffffffffffffffffffffffffffffffffffffffffffffffff811681146111cb578283fd5b81529392505050565b6000602082840312156111e5578081fd5b6111ef6020611535565b9135825250919050565b60006020828403121561120a578081fd5b61029b83836110dc565b60008060408385031215611226578182fd5b61123084846110dc565b915061116a84602085016110dc565b600060208284031215611250578081fd5b813571ffffffffffffffffffffffffffffffffffff81168114611271578182fd5b9392505050565b90815260200190565b6020808252601d908201527f4669786564506f696e743a204449565f42595f5a45524f5f4449565551000000604082015260600190565b6020808252602e908201527f4669786564506f696e743a204449565f42595f5a45524f5f5245434950524f4360408201527f414c5f4f525f4f564552464c4f57000000000000000000000000000000000000606082015260800190565b6020808252818101527f4669786564506f696e743a204d554c55515f4f564552464c4f575f5550504552604082015260600190565b6020808252600d908201527f4269744d6174683a205a45524f00000000000000000000000000000000000000604082015260600190565b60208082526019908201527f4669786564506f696e743a204d554c495f4f564552464c4f5700000000000000604082015260600190565b6020808252601a908201527f46756c6c4d6174683a2046554c4c4449565f4f564552464c4f57000000000000604082015260600190565b6020808252601a908201527f4669786564506f696e743a2044495655515f4f564552464c4f57000000000000604082015260600190565b60208082526018908201527f4669786564506f696e743a204d554c5f4f564552464c4f570000000000000000604082015260600190565b6020808252818101527f4669786564506f696e743a204449565f42595f5a45524f5f4652414354494f4e604082015260600190565b6020808252601e908201527f4669786564506f696e743a204d554c55515f4f564552464c4f575f53554d0000604082015260600190565b90517bffffffffffffffffffffffffffffffffffffffffffffffffffffffff16815260200190565b9051815260200190565b6dffffffffffffffffffffffffffff91909116815260200190565b71ffffffffffffffffffffffffffffffffffff91909116815260200190565b60405181810167ffffffffffffffff8111828210171561155457600080fd5b60405291905056fea2646970667358221220f40475483ff9a3c9d7becc325677a0919d48f5af12475cb16a97e53ed9ca840964736f6c634300060c0033",
      "opcodes": "PUSH1 0x80 PUSH1 0x40 MSTORE CALLVALUE DUP1 ISZERO PUSH2 0x10 JUMPI PUSH1 0x0 DUP1 REVERT JUMPDEST POP PUSH2 0x1592 DUP1 PUSH2 0x20 PUSH1 0x0 CODECOPY PUSH1 0x0 RETURN INVALID PUSH1 0x80 PUSH1 0x40 MSTORE CALLVALUE DUP1 ISZERO PUSH2 0x10 JUMPI PUSH1 0x0 DUP1 REVERT JUMPDEST POP PUSH1 0x4 CALLDATASIZE LT PUSH2 0xEA JUMPI PUSH1 0x0 CALLDATALOAD PUSH1 0xE0 SHR DUP1 PUSH4 0x89258451 GT PUSH2 0x8C JUMPI DUP1 PUSH4 0xC814E314 GT PUSH2 0x66 JUMPI DUP1 PUSH4 0xC814E314 EQ PUSH2 0x1F7 JUMPI DUP1 PUSH4 0xCA2D0299 EQ PUSH2 0x20A JUMPI DUP1 PUSH4 0xCA74FCC0 EQ PUSH2 0x21D JUMPI DUP1 PUSH4 0xD993D379 EQ PUSH2 0x230 JUMPI PUSH2 0xEA JUMP JUMPDEST DUP1 PUSH4 0x89258451 EQ PUSH2 0x1B1 JUMPI DUP1 PUSH4 0xAF35B769 EQ PUSH2 0x1C4 JUMPI DUP1 PUSH4 0xB1ACAD5C EQ PUSH2 0x1E4 JUMPI PUSH2 0xEA JUMP JUMPDEST DUP1 PUSH4 0x4FD04A40 GT PUSH2 0xC8 JUMPI DUP1 PUSH4 0x4FD04A40 EQ PUSH2 0x13E JUMPI DUP1 PUSH4 0x5A606689 EQ PUSH2 0x15E JUMPI DUP1 PUSH4 0x5F9F4C3B EQ PUSH2 0x171 JUMPI DUP1 PUSH4 0x6D173F71 EQ PUSH2 0x191 JUMPI PUSH2 0xEA JUMP JUMPDEST DUP1 PUSH4 0x31F92B13 EQ PUSH2 0xEF JUMPI DUP1 PUSH4 0x3F1626C8 EQ PUSH2 0x118 JUMPI DUP1 PUSH4 0x4DE4CF92 EQ PUSH2 0x12B JUMPI JUMPDEST PUSH1 0x0 DUP1 REVERT JUMPDEST PUSH2 0x102 PUSH2 0xFD CALLDATASIZE PUSH1 0x4 PUSH2 0x10FA JUMP JUMPDEST PUSH2 0x243 JUMP JUMPDEST PUSH1 0x40 MLOAD PUSH2 0x10F SWAP2 SWAP1 PUSH2 0x14C9 JUMP JUMPDEST PUSH1 0x40 MLOAD DUP1 SWAP2 SUB SWAP1 RETURN JUMPDEST PUSH2 0x102 PUSH2 0x126 CALLDATASIZE PUSH1 0x4 PUSH2 0x10FA JUMP JUMPDEST PUSH2 0x26A JUMP JUMPDEST PUSH2 0x102 PUSH2 0x139 CALLDATASIZE PUSH1 0x4 PUSH2 0x1214 JUMP JUMPDEST PUSH2 0x289 JUMP JUMPDEST PUSH2 0x151 PUSH2 0x14C CALLDATASIZE PUSH1 0x4 PUSH2 0x10FA JUMP JUMPDEST PUSH2 0x2A4 JUMP JUMPDEST PUSH1 0x40 MLOAD PUSH2 0x10F SWAP2 SWAP1 PUSH2 0x14FB JUMP JUMPDEST PUSH2 0x102 PUSH2 0x16C CALLDATASIZE PUSH1 0x4 PUSH2 0x113F JUMP JUMPDEST PUSH2 0x2BD JUMP JUMPDEST PUSH2 0x184 PUSH2 0x17F CALLDATASIZE PUSH1 0x4 PUSH2 0x10FA JUMP JUMPDEST PUSH2 0x2EB JUMP JUMPDEST PUSH1 0x40 MLOAD PUSH2 0x10F SWAP2 SWAP1 PUSH2 0x1516 JUMP JUMPDEST PUSH2 0x1A4 PUSH2 0x19F CALLDATASIZE PUSH1 0x4 PUSH2 0x113F JUMP JUMPDEST PUSH2 0x304 JUMP JUMPDEST PUSH1 0x40 MLOAD PUSH2 0x10F SWAP2 SWAP1 PUSH2 0x1278 JUMP JUMPDEST PUSH2 0x1A4 PUSH2 0x1BF CALLDATASIZE PUSH1 0x4 PUSH2 0x1115 JUMP JUMPDEST PUSH2 0x336 JUMP JUMPDEST PUSH2 0x1D7 PUSH2 0x1D2 CALLDATASIZE PUSH1 0x4 PUSH2 0x1173 JUMP JUMPDEST PUSH2 0x350 JUMP JUMPDEST PUSH1 0x40 MLOAD PUSH2 0x10F SWAP2 SWAP1 PUSH2 0x14F1 JUMP JUMPDEST PUSH2 0x1A4 PUSH2 0x1F2 CALLDATASIZE PUSH1 0x4 PUSH2 0x10FA JUMP JUMPDEST PUSH2 0x370 JUMP JUMPDEST PUSH2 0x1D7 PUSH2 0x205 CALLDATASIZE PUSH1 0x4 PUSH2 0x123F JUMP JUMPDEST PUSH2 0x392 JUMP JUMPDEST PUSH2 0x102 PUSH2 0x218 CALLDATASIZE PUSH1 0x4 PUSH2 0x11F9 JUMP JUMPDEST PUSH2 0x3A3 JUMP JUMPDEST PUSH2 0x102 PUSH2 0x22B CALLDATASIZE PUSH1 0x4 PUSH2 0x113F JUMP JUMPDEST PUSH2 0x3B4 JUMP JUMPDEST PUSH2 0x1A4 PUSH2 0x23E CALLDATASIZE PUSH1 0x4 PUSH2 0x113F JUMP JUMPDEST PUSH2 0x3E2 JUMP JUMPDEST PUSH2 0x24B PUSH2 0x10A0 JUMP JUMPDEST PUSH2 0x262 PUSH2 0x25D CALLDATASIZE DUP5 SWAP1 SUB DUP5 ADD DUP5 PUSH2 0x1185 JUMP JUMPDEST PUSH2 0x409 JUMP JUMPDEST SWAP1 POP JUMPDEST SWAP2 SWAP1 POP JUMP JUMPDEST PUSH2 0x272 PUSH2 0x10A0 JUMP JUMPDEST PUSH2 0x262 PUSH2 0x284 CALLDATASIZE DUP5 SWAP1 SUB DUP5 ADD DUP5 PUSH2 0x1185 JUMP JUMPDEST PUSH2 0x4F2 JUMP JUMPDEST PUSH2 0x291 PUSH2 0x10A0 JUMP JUMPDEST PUSH2 0x29B DUP4 DUP4 PUSH2 0x652 JUMP JUMPDEST SWAP1 POP JUMPDEST SWAP3 SWAP2 POP POP JUMP JUMPDEST PUSH1 0x0 PUSH2 0x262 PUSH2 0x2B8 CALLDATASIZE DUP5 SWAP1 SUB DUP5 ADD DUP5 PUSH2 0x1185 JUMP JUMPDEST PUSH2 0x715 JUMP JUMPDEST PUSH2 0x2C5 PUSH2 0x10A0 JUMP JUMPDEST PUSH2 0x29B PUSH2 0x2D7 CALLDATASIZE DUP6 SWAP1 SUB DUP6 ADD DUP6 PUSH2 0x1185 JUMP JUMPDEST PUSH2 0x2E6 CALLDATASIZE DUP6 SWAP1 SUB DUP6 ADD DUP6 PUSH2 0x1185 JUMP JUMPDEST PUSH2 0x72C JUMP JUMPDEST PUSH1 0x0 PUSH2 0x262 PUSH2 0x2FF CALLDATASIZE DUP5 SWAP1 SUB DUP5 ADD DUP5 PUSH2 0x11D4 JUMP JUMPDEST PUSH2 0x9A8 JUMP JUMPDEST PUSH1 0x0 DUP1 GAS SWAP1 POP PUSH2 0x32B PUSH2 0x31C CALLDATASIZE DUP7 SWAP1 SUB DUP7 ADD DUP7 PUSH2 0x1185 JUMP JUMPDEST PUSH2 0x2E6 CALLDATASIZE DUP7 SWAP1 SUB DUP7 ADD DUP7 PUSH2 0x1185 JUMP JUMPDEST POP GAS SWAP1 SUB SWAP4 SWAP3 POP POP POP JUMP JUMPDEST PUSH1 0x0 PUSH2 0x29B PUSH2 0x34A CALLDATASIZE DUP6 SWAP1 SUB DUP6 ADD DUP6 PUSH2 0x1185 JUMP JUMPDEST DUP4 PUSH2 0x9AF JUMP JUMPDEST PUSH2 0x358 PUSH2 0x10B2 JUMP JUMPDEST PUSH2 0x29B PUSH2 0x36A CALLDATASIZE DUP6 SWAP1 SUB DUP6 ADD DUP6 PUSH2 0x1185 JUMP JUMPDEST DUP4 PUSH2 0xA76 JUMP JUMPDEST PUSH1 0x0 DUP1 GAS SWAP1 POP PUSH2 0x388 PUSH2 0x284 CALLDATASIZE DUP6 SWAP1 SUB DUP6 ADD DUP6 PUSH2 0x1185 JUMP JUMPDEST POP GAS SWAP1 SUB SWAP3 SWAP2 POP POP JUMP JUMPDEST PUSH2 0x39A PUSH2 0x10B2 JUMP JUMPDEST PUSH2 0x262 DUP3 PUSH2 0xB04 JUMP JUMPDEST PUSH2 0x3AB PUSH2 0x10A0 JUMP JUMPDEST PUSH2 0x262 DUP3 PUSH2 0xB45 JUMP JUMPDEST PUSH2 0x3BC PUSH2 0x10A0 JUMP JUMPDEST PUSH2 0x29B PUSH2 0x3CE CALLDATASIZE DUP6 SWAP1 SUB DUP6 ADD DUP6 PUSH2 0x1185 JUMP JUMPDEST PUSH2 0x3DD CALLDATASIZE DUP6 SWAP1 SUB DUP6 ADD DUP6 PUSH2 0x1185 JUMP JUMPDEST PUSH2 0xB82 JUMP JUMPDEST PUSH1 0x0 DUP1 GAS SWAP1 POP PUSH2 0x32B PUSH2 0x3FA CALLDATASIZE DUP7 SWAP1 SUB DUP7 ADD DUP7 PUSH2 0x1185 JUMP JUMPDEST PUSH2 0x3DD CALLDATASIZE DUP7 SWAP1 SUB DUP7 ADD DUP7 PUSH2 0x1185 JUMP JUMPDEST PUSH2 0x411 PUSH2 0x10A0 JUMP JUMPDEST PUSH1 0x1 DUP3 PUSH1 0x0 ADD MLOAD PUSH28 0xFFFFFFFFFFFFFFFFFFFFFFFFFFFFFFFFFFFFFFFFFFFFFFFFFFFFFFFF AND GT PUSH2 0x476 JUMPI PUSH1 0x40 MLOAD PUSH32 0x8C379A000000000000000000000000000000000000000000000000000000000 DUP2 MSTORE PUSH1 0x4 ADD PUSH2 0x46D SWAP1 PUSH2 0x12B8 JUMP JUMPDEST PUSH1 0x40 MLOAD DUP1 SWAP2 SUB SWAP1 REVERT JUMPDEST PUSH1 0x40 MLOAD DUP1 PUSH1 0x20 ADD PUSH1 0x40 MSTORE DUP1 DUP4 PUSH1 0x0 ADD MLOAD PUSH28 0xFFFFFFFFFFFFFFFFFFFFFFFFFFFFFFFFFFFFFFFFFFFFFFFFFFFFFFFF AND PUSH29 0x100000000000000000000000000000000000000000000000000000000 DUP2 PUSH2 0x4C9 JUMPI INVALID JUMPDEST DIV PUSH28 0xFFFFFFFFFFFFFFFFFFFFFFFFFFFFFFFFFFFFFFFFFFFFFFFFFFFFFFFF AND DUP2 MSTORE POP SWAP1 POP SWAP2 SWAP1 POP JUMP JUMPDEST PUSH2 0x4FA PUSH2 0x10A0 JUMP JUMPDEST DUP2 MLOAD PUSH18 0xFFFFFFFFFFFFFFFFFFFFFFFFFFFFFFFFFFFF PUSH28 0xFFFFFFFFFFFFFFFFFFFFFFFFFFFFFFFFFFFFFFFFFFFFFFFFFFFFFFFF SWAP1 SWAP2 AND GT PUSH2 0x595 JUMPI PUSH1 0x40 MLOAD DUP1 PUSH1 0x20 ADD PUSH1 0x40 MSTORE DUP1 PUSH2 0x56E PUSH1 0x70 DUP6 PUSH1 0x0 ADD MLOAD PUSH28 0xFFFFFFFFFFFFFFFFFFFFFFFFFFFFFFFFFFFFFFFFFFFFFFFFFFFFFFFF AND SWAP1 SHL PUSH2 0xE35 JUMP JUMPDEST PUSH28 0xFFFFFFFFFFFFFFFFFFFFFFFFFFFFFFFFFFFFFFFFFFFFFFFFFFFFFFFF AND SWAP1 MSTORE SWAP1 POP PUSH2 0x265 JUMP JUMPDEST PUSH1 0x0 PUSH2 0x5C2 DUP4 PUSH1 0x0 ADD MLOAD PUSH28 0xFFFFFFFFFFFFFFFFFFFFFFFFFFFFFFFFFFFFFFFFFFFFFFFFFFFFFFFF AND PUSH2 0xE86 JUMP JUMPDEST PUSH1 0xFF SUB SWAP1 POP PUSH1 0x2 DUP2 PUSH1 0xFF AND DUP2 PUSH2 0x5D4 JUMPI INVALID JUMPDEST MOD DUP2 SUB SWAP1 POP PUSH1 0x40 MLOAD DUP1 PUSH1 0x20 ADD PUSH1 0x40 MSTORE DUP1 PUSH1 0x2 DUP4 PUSH1 0x70 SUB PUSH1 0xFF AND DUP2 PUSH2 0x5F4 JUMPI INVALID JUMPDEST DIV PUSH1 0xFF AND PUSH2 0x629 DUP5 PUSH1 0xFF AND DUP8 PUSH1 0x0 ADD MLOAD PUSH28 0xFFFFFFFFFFFFFFFFFFFFFFFFFFFFFFFFFFFFFFFFFFFFFFFFFFFFFFFF AND SWAP1 SHL PUSH2 0xE35 JUMP JUMPDEST SWAP1 SHL PUSH28 0xFFFFFFFFFFFFFFFFFFFFFFFFFFFFFFFFFFFFFFFFFFFFFFFFFFFFFFFF AND SWAP1 MSTORE SWAP4 SWAP3 POP POP POP JUMP JUMPDEST PUSH2 0x65A PUSH2 0x10A0 JUMP JUMPDEST PUSH1 0x0 DUP3 PUSH14 0xFFFFFFFFFFFFFFFFFFFFFFFFFFFF AND GT PUSH2 0x6A4 JUMPI PUSH1 0x40 MLOAD PUSH32 0x8C379A000000000000000000000000000000000000000000000000000000000 DUP2 MSTORE PUSH1 0x4 ADD PUSH2 0x46D SWAP1 PUSH2 0x145D JUMP JUMPDEST PUSH1 0x40 DUP1 MLOAD PUSH1 0x20 DUP2 ADD SWAP1 SWAP2 MSTORE DUP1 PUSH14 0xFFFFFFFFFFFFFFFFFFFFFFFFFFFF DUP5 AND PUSH28 0xFFFFFFFFFFFFFFFFFFFFFFFFFFFF0000000000000000000000000000 PUSH1 0x70 DUP8 SWAP1 SHL AND DUP2 PUSH2 0x6EB JUMPI INVALID JUMPDEST DIV PUSH28 0xFFFFFFFFFFFFFFFFFFFFFFFFFFFFFFFFFFFFFFFFFFFFFFFFFFFFFFFF AND DUP2 MSTORE POP SWAP1 POP SWAP3 SWAP2 POP POP JUMP JUMPDEST MLOAD PUSH1 0x70 SHR PUSH14 0xFFFFFFFFFFFFFFFFFFFFFFFFFFFF AND SWAP1 JUMP JUMPDEST PUSH2 0x734 PUSH2 0x10A0 JUMP JUMPDEST DUP3 MLOAD PUSH28 0xFFFFFFFFFFFFFFFFFFFFFFFFFFFFFFFFFFFFFFFFFFFFFFFFFFFFFFFF AND ISZERO DUP1 PUSH2 0x77D JUMPI POP DUP2 MLOAD PUSH28 0xFFFFFFFFFFFFFFFFFFFFFFFFFFFFFFFFFFFFFFFFFFFFFFFFFFFFFFFF AND ISZERO JUMPDEST ISZERO PUSH2 0x797 JUMPI POP PUSH1 0x40 DUP1 MLOAD PUSH1 0x20 DUP2 ADD SWAP1 SWAP2 MSTORE PUSH1 0x0 DUP2 MSTORE PUSH2 0x29E JUMP JUMPDEST DUP3 MLOAD DUP3 MLOAD PUSH14 0xFFFFFFFFFFFFFFFFFFFFFFFFFFFF PUSH1 0x70 DUP4 DUP2 SHR DUP3 AND SWAP4 DUP3 AND SWAP3 SWAP1 DUP2 SWAP1 SHR DUP3 AND SWAP2 SWAP1 DUP2 AND SWAP1 DUP3 DUP6 MUL SWAP1 DUP3 DUP6 MUL SWAP1 DUP4 DUP8 MUL SWAP1 DUP6 DUP8 MUL SWAP1 PUSH28 0xFFFFFFFFFFFFFFFFFFFFFFFFFFFFFFFFFFFFFFFFFFFFFFFFFFFFFFFF DUP6 AND GT ISZERO PUSH2 0x827 JUMPI PUSH1 0x40 MLOAD PUSH32 0x8C379A000000000000000000000000000000000000000000000000000000000 DUP2 MSTORE PUSH1 0x4 ADD PUSH2 0x46D SWAP1 PUSH2 0x1315 JUMP JUMPDEST PUSH1 0x0 PUSH1 0x70 PUSH1 0xFF AND DUP5 PUSH28 0xFFFFFFFFFFFFFFFFFFFFFFFFFFFFFFFFFFFFFFFFFFFFFFFFFFFFFFFF AND SWAP1 SHR PUSH28 0xFFFFFFFFFFFFFFFFFFFFFFFFFFFFFFFFFFFFFFFFFFFFFFFFFFFFFFFF AND DUP3 PUSH28 0xFFFFFFFFFFFFFFFFFFFFFFFFFFFFFFFFFFFFFFFFFFFFFFFFFFFFFFFF AND DUP5 PUSH28 0xFFFFFFFFFFFFFFFFFFFFFFFFFFFFFFFFFFFFFFFFFFFFFFFFFFFFFFFF AND PUSH1 0x70 PUSH1 0xFF AND DUP9 PUSH28 0xFFFFFFFFFFFFFFFFFFFFFFFFFFFFFFFFFFFFFFFFFFFFFFFFFFFFFFFF AND SWAP1 SHL PUSH28 0xFFFFFFFFFFFFFFFFFFFFFFFFFFFFFFFFFFFFFFFFFFFFFFFFFFFFFFFF AND ADD ADD ADD SWAP1 POP PUSH32 0xFFFFFFFFFFFFFFFFFFFFFFFFFFFFFFFFFFFFFFFFFFFFFFFFFFFFFFFFFFFFFFFF PUSH28 0xFFFFFFFFFFFFFFFFFFFFFFFFFFFFFFFFFFFFFFFFFFFFFFFFFFFFFFFF AND DUP2 GT ISZERO PUSH2 0x96C JUMPI PUSH1 0x40 MLOAD PUSH32 0x8C379A000000000000000000000000000000000000000000000000000000000 DUP2 MSTORE PUSH1 0x4 ADD PUSH2 0x46D SWAP1 PUSH2 0x1492 JUMP JUMPDEST PUSH1 0x40 DUP1 MLOAD PUSH1 0x20 DUP2 ADD SWAP1 SWAP2 MSTORE PUSH28 0xFFFFFFFFFFFFFFFFFFFFFFFFFFFFFFFFFFFFFFFFFFFFFFFFFFFFFFFF SWAP1 SWAP2 AND DUP2 MSTORE SWAP12 SWAP11 POP POP POP POP POP POP POP POP POP POP POP JUMP JUMPDEST MLOAD PUSH1 0x70 SHR SWAP1 JUMP JUMPDEST PUSH1 0x0 DUP1 PUSH2 0xA00 DUP5 PUSH1 0x0 ADD MLOAD PUSH28 0xFFFFFFFFFFFFFFFFFFFFFFFFFFFFFFFFFFFFFFFFFFFFFFFFFFFFFFFF AND PUSH1 0x0 DUP6 SLT PUSH2 0x9E6 JUMPI DUP5 PUSH2 0x9EB JUMP JUMPDEST DUP5 PUSH1 0x0 SUB JUMPDEST PUSH15 0x10000000000000000000000000000 PUSH2 0xF60 JUMP JUMPDEST SWAP1 POP PUSH32 0x8000000000000000000000000000000000000000000000000000000000000000 DUP2 LT PUSH2 0xA5B JUMPI PUSH1 0x40 MLOAD PUSH32 0x8C379A000000000000000000000000000000000000000000000000000000000 DUP2 MSTORE PUSH1 0x4 ADD PUSH2 0x46D SWAP1 PUSH2 0x1381 JUMP JUMPDEST PUSH1 0x0 DUP4 SLT PUSH2 0xA69 JUMPI DUP1 PUSH2 0xA6E JUMP JUMPDEST DUP1 PUSH1 0x0 SUB JUMPDEST SWAP5 SWAP4 POP POP POP POP JUMP JUMPDEST PUSH2 0xA7E PUSH2 0x10B2 JUMP JUMPDEST PUSH1 0x0 DUP3 ISZERO DUP1 PUSH2 0xAB9 JUMPI POP POP DUP3 MLOAD PUSH28 0xFFFFFFFFFFFFFFFFFFFFFFFFFFFFFFFFFFFFFFFFFFFFFFFFFFFFFFFF AND DUP3 DUP2 MUL SWAP1 DUP4 DUP3 DUP2 PUSH2 0xAB6 JUMPI INVALID JUMPDEST DIV EQ JUMPDEST PUSH2 0xAEF JUMPI PUSH1 0x40 MLOAD PUSH32 0x8C379A000000000000000000000000000000000000000000000000000000000 DUP2 MSTORE PUSH1 0x4 ADD PUSH2 0x46D SWAP1 PUSH2 0x1426 JUMP JUMPDEST PUSH1 0x40 DUP1 MLOAD PUSH1 0x20 DUP2 ADD SWAP1 SWAP2 MSTORE SWAP1 DUP2 MSTORE SWAP4 SWAP3 POP POP POP JUMP JUMPDEST PUSH2 0xB0C PUSH2 0x10B2 JUMP JUMPDEST POP PUSH1 0x40 DUP1 MLOAD PUSH1 0x20 DUP2 ADD SWAP1 SWAP2 MSTORE PUSH1 0x70 SWAP2 SWAP1 SWAP2 SHL PUSH32 0xFFFFFFFFFFFFFFFFFFFFFFFFFFFFFFFFFFFF0000000000000000000000000000 AND DUP2 MSTORE SWAP1 JUMP JUMPDEST PUSH2 0xB4D PUSH2 0x10A0 JUMP JUMPDEST POP PUSH1 0x40 DUP1 MLOAD PUSH1 0x20 DUP2 ADD SWAP1 SWAP2 MSTORE PUSH1 0x70 SWAP2 SWAP1 SWAP2 SHL PUSH28 0xFFFFFFFFFFFFFFFFFFFFFFFFFFFF0000000000000000000000000000 AND DUP2 MSTORE SWAP1 JUMP JUMPDEST PUSH2 0xB8A PUSH2 0x10A0 JUMP JUMPDEST DUP2 MLOAD PUSH28 0xFFFFFFFFFFFFFFFFFFFFFFFFFFFFFFFFFFFFFFFFFFFFFFFFFFFFFFFF AND PUSH2 0xBE0 JUMPI PUSH1 0x40 MLOAD PUSH32 0x8C379A000000000000000000000000000000000000000000000000000000000 DUP2 MSTORE PUSH1 0x4 ADD PUSH2 0x46D SWAP1 PUSH2 0x1281 JUMP JUMPDEST DUP2 MLOAD DUP4 MLOAD PUSH28 0xFFFFFFFFFFFFFFFFFFFFFFFFFFFFFFFFFFFFFFFFFFFFFFFFFFFFFFFF SWAP1 DUP2 AND SWAP2 AND EQ ISZERO PUSH2 0xC2F JUMPI POP PUSH1 0x40 DUP1 MLOAD PUSH1 0x20 DUP2 ADD SWAP1 SWAP2 MSTORE PUSH15 0x10000000000000000000000000000 DUP2 MSTORE PUSH2 0x29E JUMP JUMPDEST DUP3 MLOAD PUSH18 0xFFFFFFFFFFFFFFFFFFFFFFFFFFFFFFFFFFFF PUSH28 0xFFFFFFFFFFFFFFFFFFFFFFFFFFFFFFFFFFFFFFFFFFFFFFFFFFFFFFFF SWAP1 SWAP2 AND GT PUSH2 0xD49 JUMPI DUP2 MLOAD DUP4 MLOAD PUSH1 0x0 SWAP2 PUSH28 0xFFFFFFFFFFFFFFFFFFFFFFFFFFFFFFFFFFFFFFFFFFFFFFFFFFFFFFFF AND SWAP1 PUSH1 0x70 SHL PUSH32 0xFFFFFFFFFFFFFFFFFFFFFFFFFFFFFFFFFFFF0000000000000000000000000000 AND DUP2 PUSH2 0xCBB JUMPI INVALID JUMPDEST DIV SWAP1 POP PUSH28 0xFFFFFFFFFFFFFFFFFFFFFFFFFFFFFFFFFFFFFFFFFFFFFFFFFFFFFFFF DUP2 GT ISZERO PUSH2 0xD14 JUMPI PUSH1 0x40 MLOAD PUSH32 0x8C379A000000000000000000000000000000000000000000000000000000000 DUP2 MSTORE PUSH1 0x4 ADD PUSH2 0x46D SWAP1 PUSH2 0x13EF JUMP JUMPDEST PUSH1 0x40 MLOAD DUP1 PUSH1 0x20 ADD PUSH1 0x40 MSTORE DUP1 DUP3 PUSH28 0xFFFFFFFFFFFFFFFFFFFFFFFFFFFFFFFFFFFFFFFFFFFFFFFFFFFFFFFF AND DUP2 MSTORE POP SWAP2 POP POP PUSH2 0x29E JUMP JUMPDEST PUSH1 0x0 PUSH2 0xDA9 PUSH15 0x10000000000000000000000000000 DUP6 PUSH1 0x0 ADD MLOAD PUSH28 0xFFFFFFFFFFFFFFFFFFFFFFFFFFFFFFFFFFFFFFFFFFFFFFFFFFFFFFFF AND DUP6 PUSH1 0x0 ADD MLOAD PUSH28 0xFFFFFFFFFFFFFFFFFFFFFFFFFFFFFFFFFFFFFFFFFFFFFFFFFFFFFFFF AND PUSH2 0xF60 JUMP JUMPDEST SWAP1 POP PUSH28 0xFFFFFFFFFFFFFFFFFFFFFFFFFFFFFFFFFFFFFFFFFFFFFFFFFFFFFFFF DUP2 GT ISZERO PUSH2 0xE01 JUMPI PUSH1 0x40 MLOAD PUSH32 0x8C379A000000000000000000000000000000000000000000000000000000000 DUP2 MSTORE PUSH1 0x4 ADD PUSH2 0x46D SWAP1 PUSH2 0x13EF JUMP JUMPDEST PUSH1 0x40 DUP1 MLOAD PUSH1 0x20 DUP2 ADD SWAP1 SWAP2 MSTORE PUSH28 0xFFFFFFFFFFFFFFFFFFFFFFFFFFFFFFFFFFFFFFFFFFFFFFFFFFFFFFFF SWAP1 SWAP2 AND DUP2 MSTORE SWAP4 SWAP3 POP POP POP JUMP JUMPDEST PUSH1 0x0 PUSH1 0x3 DUP3 GT ISZERO PUSH2 0xE78 JUMPI POP DUP1 PUSH1 0x1 PUSH1 0x2 DUP3 DIV ADD JUMPDEST DUP2 DUP2 LT ISZERO PUSH2 0xE72 JUMPI DUP1 SWAP2 POP PUSH1 0x2 DUP2 DUP3 DUP6 DUP2 PUSH2 0xE61 JUMPI INVALID JUMPDEST DIV ADD DUP2 PUSH2 0xE6A JUMPI INVALID JUMPDEST DIV SWAP1 POP PUSH2 0xE4A JUMP JUMPDEST POP PUSH2 0x265 JUMP JUMPDEST DUP2 ISZERO PUSH2 0x265 JUMPI POP PUSH1 0x1 SWAP2 SWAP1 POP JUMP JUMPDEST PUSH1 0x0 DUP1 DUP3 GT PUSH2 0xEC1 JUMPI PUSH1 0x40 MLOAD PUSH32 0x8C379A000000000000000000000000000000000000000000000000000000000 DUP2 MSTORE PUSH1 0x4 ADD PUSH2 0x46D SWAP1 PUSH2 0x134A JUMP JUMPDEST PUSH17 0x100000000000000000000000000000000 DUP3 LT PUSH2 0xEE1 JUMPI PUSH1 0x80 SWAP2 DUP3 SHR SWAP2 ADD JUMPDEST PUSH9 0x10000000000000000 DUP3 LT PUSH2 0xEF9 JUMPI PUSH1 0x40 SWAP2 DUP3 SHR SWAP2 ADD JUMPDEST PUSH5 0x100000000 DUP3 LT PUSH2 0xF0D JUMPI PUSH1 0x20 SWAP2 DUP3 SHR SWAP2 ADD JUMPDEST PUSH3 0x10000 DUP3 LT PUSH2 0xF1F JUMPI PUSH1 0x10 SWAP2 DUP3 SHR SWAP2 ADD JUMPDEST PUSH2 0x100 DUP3 LT PUSH2 0xF30 JUMPI PUSH1 0x8 SWAP2 DUP3 SHR SWAP2 ADD JUMPDEST PUSH1 0x10 DUP3 LT PUSH2 0xF40 JUMPI PUSH1 0x4 SWAP2 DUP3 SHR SWAP2 ADD JUMPDEST PUSH1 0x4 DUP3 LT PUSH2 0xF50 JUMPI PUSH1 0x2 SWAP2 DUP3 SHR SWAP2 ADD JUMPDEST PUSH1 0x2 DUP3 LT PUSH2 0x265 JUMPI PUSH1 0x1 ADD SWAP2 SWAP1 POP JUMP JUMPDEST PUSH1 0x0 DUP1 PUSH1 0x0 PUSH2 0xF6F DUP7 DUP7 PUSH2 0xFE5 JUMP JUMPDEST SWAP2 POP SWAP2 POP PUSH1 0x0 DUP5 DUP1 PUSH2 0xF7D JUMPI INVALID JUMPDEST DUP7 DUP9 MULMOD SWAP1 POP DUP3 DUP2 GT ISZERO PUSH2 0xF91 JUMPI PUSH1 0x1 DUP3 SUB SWAP2 POP JUMPDEST DUP1 DUP4 SUB SWAP3 POP DUP5 DUP3 LT PUSH2 0xFCF JUMPI PUSH1 0x40 MLOAD PUSH32 0x8C379A000000000000000000000000000000000000000000000000000000000 DUP2 MSTORE PUSH1 0x4 ADD PUSH2 0x46D SWAP1 PUSH2 0x13B8 JUMP JUMPDEST PUSH2 0xFDA DUP4 DUP4 DUP8 PUSH2 0x1030 JUMP JUMPDEST SWAP8 SWAP7 POP POP POP POP POP POP POP JUMP JUMPDEST PUSH1 0x0 DUP1 DUP1 PUSH32 0xFFFFFFFFFFFFFFFFFFFFFFFFFFFFFFFFFFFFFFFFFFFFFFFFFFFFFFFFFFFFFFFF DUP5 DUP7 MULMOD SWAP1 POP DUP4 DUP6 MUL SWAP3 POP DUP3 DUP2 SUB SWAP2 POP DUP3 DUP2 LT ISZERO PUSH2 0x1028 JUMPI PUSH1 0x1 DUP3 SUB SWAP2 POP JUMPDEST POP SWAP3 POP SWAP3 SWAP1 POP JUMP JUMPDEST PUSH1 0x0 DUP2 DUP2 SUB DUP3 AND DUP1 DUP4 DUP2 PUSH2 0x1040 JUMPI INVALID JUMPDEST DIV SWAP3 POP DUP1 DUP6 DUP2 PUSH2 0x104C JUMPI INVALID JUMPDEST DIV SWAP5 POP DUP1 DUP2 PUSH1 0x0 SUB DUP2 PUSH2 0x105B JUMPI INVALID JUMPDEST PUSH1 0x2 DUP6 DUP2 SUB DUP1 DUP8 MUL DUP3 SUB MUL DUP1 DUP8 MUL DUP3 SUB MUL DUP1 DUP8 MUL DUP3 SUB MUL DUP1 DUP8 MUL DUP3 SUB MUL DUP1 DUP8 MUL DUP3 SUB MUL DUP1 DUP8 MUL DUP3 SUB MUL SWAP6 DUP7 MUL SWAP1 SUB SWAP1 SWAP5 MUL SWAP4 DIV PUSH1 0x1 ADD SWAP4 SWAP1 SWAP4 MUL SWAP4 SWAP1 SWAP4 ADD MUL SWAP3 SWAP2 POP POP JUMP JUMPDEST PUSH1 0x40 DUP1 MLOAD PUSH1 0x20 DUP2 ADD SWAP1 SWAP2 MSTORE PUSH1 0x0 DUP2 MSTORE SWAP1 JUMP JUMPDEST PUSH1 0x40 MLOAD DUP1 PUSH1 0x20 ADD PUSH1 0x40 MSTORE DUP1 PUSH1 0x0 DUP2 MSTORE POP SWAP1 JUMP JUMPDEST PUSH1 0x0 PUSH1 0x20 DUP3 DUP5 SUB SLT ISZERO PUSH2 0x10D6 JUMPI DUP1 DUP2 REVERT JUMPDEST POP SWAP2 SWAP1 POP JUMP JUMPDEST DUP1 CALLDATALOAD PUSH14 0xFFFFFFFFFFFFFFFFFFFFFFFFFFFF DUP2 AND DUP2 EQ PUSH2 0x29E JUMPI PUSH1 0x0 DUP1 REVERT JUMPDEST PUSH1 0x0 PUSH1 0x20 DUP3 DUP5 SUB SLT ISZERO PUSH2 0x110B JUMPI DUP1 DUP2 REVERT JUMPDEST PUSH2 0x29B DUP4 DUP4 PUSH2 0x10C5 JUMP JUMPDEST PUSH1 0x0 DUP1 PUSH1 0x40 DUP4 DUP6 SUB SLT ISZERO PUSH2 0x1127 JUMPI DUP1 DUP2 REVERT JUMPDEST PUSH2 0x1131 DUP5 DUP5 PUSH2 0x10C5 JUMP JUMPDEST SWAP5 PUSH1 0x20 SWAP4 SWAP1 SWAP4 ADD CALLDATALOAD SWAP4 POP POP POP JUMP JUMPDEST PUSH1 0x0 DUP1 PUSH1 0x40 DUP4 DUP6 SUB SLT ISZERO PUSH2 0x1151 JUMPI DUP2 DUP3 REVERT JUMPDEST PUSH2 0x115B DUP5 DUP5 PUSH2 0x10C5 JUMP JUMPDEST SWAP2 POP PUSH2 0x116A DUP5 PUSH1 0x20 DUP6 ADD PUSH2 0x10C5 JUMP JUMPDEST SWAP1 POP SWAP3 POP SWAP3 SWAP1 POP JUMP JUMPDEST PUSH1 0x0 DUP1 PUSH1 0x40 DUP4 DUP6 SUB SLT ISZERO PUSH2 0x1127 JUMPI DUP2 DUP3 REVERT JUMPDEST PUSH1 0x0 PUSH1 0x20 DUP3 DUP5 SUB SLT ISZERO PUSH2 0x1196 JUMPI DUP1 DUP2 REVERT JUMPDEST PUSH2 0x11A0 PUSH1 0x20 PUSH2 0x1535 JUMP JUMPDEST DUP3 CALLDATALOAD PUSH28 0xFFFFFFFFFFFFFFFFFFFFFFFFFFFFFFFFFFFFFFFFFFFFFFFFFFFFFFFF DUP2 AND DUP2 EQ PUSH2 0x11CB JUMPI DUP3 DUP4 REVERT JUMPDEST DUP2 MSTORE SWAP4 SWAP3 POP POP POP JUMP JUMPDEST PUSH1 0x0 PUSH1 0x20 DUP3 DUP5 SUB SLT ISZERO PUSH2 0x11E5 JUMPI DUP1 DUP2 REVERT JUMPDEST PUSH2 0x11EF PUSH1 0x20 PUSH2 0x1535 JUMP JUMPDEST SWAP2 CALLDATALOAD DUP3 MSTORE POP SWAP2 SWAP1 POP JUMP JUMPDEST PUSH1 0x0 PUSH1 0x20 DUP3 DUP5 SUB SLT ISZERO PUSH2 0x120A JUMPI DUP1 DUP2 REVERT JUMPDEST PUSH2 0x29B DUP4 DUP4 PUSH2 0x10DC JUMP JUMPDEST PUSH1 0x0 DUP1 PUSH1 0x40 DUP4 DUP6 SUB SLT ISZERO PUSH2 0x1226 JUMPI DUP2 DUP3 REVERT JUMPDEST PUSH2 0x1230 DUP5 DUP5 PUSH2 0x10DC JUMP JUMPDEST SWAP2 POP PUSH2 0x116A DUP5 PUSH1 0x20 DUP6 ADD PUSH2 0x10DC JUMP JUMPDEST PUSH1 0x0 PUSH1 0x20 DUP3 DUP5 SUB SLT ISZERO PUSH2 0x1250 JUMPI DUP1 DUP2 REVERT JUMPDEST DUP2 CALLDATALOAD PUSH18 0xFFFFFFFFFFFFFFFFFFFFFFFFFFFFFFFFFFFF DUP2 AND DUP2 EQ PUSH2 0x1271 JUMPI DUP2 DUP3 REVERT JUMPDEST SWAP4 SWAP3 POP POP POP JUMP JUMPDEST SWAP1 DUP2 MSTORE PUSH1 0x20 ADD SWAP1 JUMP JUMPDEST PUSH1 0x20 DUP1 DUP3 MSTORE PUSH1 0x1D SWAP1 DUP3 ADD MSTORE PUSH32 0x4669786564506F696E743A204449565F42595F5A45524F5F4449565551000000 PUSH1 0x40 DUP3 ADD MSTORE PUSH1 0x60 ADD SWAP1 JUMP JUMPDEST PUSH1 0x20 DUP1 DUP3 MSTORE PUSH1 0x2E SWAP1 DUP3 ADD MSTORE PUSH32 0x4669786564506F696E743A204449565F42595F5A45524F5F5245434950524F43 PUSH1 0x40 DUP3 ADD MSTORE PUSH32 0x414C5F4F525F4F564552464C4F57000000000000000000000000000000000000 PUSH1 0x60 DUP3 ADD MSTORE PUSH1 0x80 ADD SWAP1 JUMP JUMPDEST PUSH1 0x20 DUP1 DUP3 MSTORE DUP2 DUP2 ADD MSTORE PUSH32 0x4669786564506F696E743A204D554C55515F4F564552464C4F575F5550504552 PUSH1 0x40 DUP3 ADD MSTORE PUSH1 0x60 ADD SWAP1 JUMP JUMPDEST PUSH1 0x20 DUP1 DUP3 MSTORE PUSH1 0xD SWAP1 DUP3 ADD MSTORE PUSH32 0x4269744D6174683A205A45524F00000000000000000000000000000000000000 PUSH1 0x40 DUP3 ADD MSTORE PUSH1 0x60 ADD SWAP1 JUMP JUMPDEST PUSH1 0x20 DUP1 DUP3 MSTORE PUSH1 0x19 SWAP1 DUP3 ADD MSTORE PUSH32 0x4669786564506F696E743A204D554C495F4F564552464C4F5700000000000000 PUSH1 0x40 DUP3 ADD MSTORE PUSH1 0x60 ADD SWAP1 JUMP JUMPDEST PUSH1 0x20 DUP1 DUP3 MSTORE PUSH1 0x1A SWAP1 DUP3 ADD MSTORE PUSH32 0x46756C6C4D6174683A2046554C4C4449565F4F564552464C4F57000000000000 PUSH1 0x40 DUP3 ADD MSTORE PUSH1 0x60 ADD SWAP1 JUMP JUMPDEST PUSH1 0x20 DUP1 DUP3 MSTORE PUSH1 0x1A SWAP1 DUP3 ADD MSTORE PUSH32 0x4669786564506F696E743A2044495655515F4F564552464C4F57000000000000 PUSH1 0x40 DUP3 ADD MSTORE PUSH1 0x60 ADD SWAP1 JUMP JUMPDEST PUSH1 0x20 DUP1 DUP3 MSTORE PUSH1 0x18 SWAP1 DUP3 ADD MSTORE PUSH32 0x4669786564506F696E743A204D554C5F4F564552464C4F570000000000000000 PUSH1 0x40 DUP3 ADD MSTORE PUSH1 0x60 ADD SWAP1 JUMP JUMPDEST PUSH1 0x20 DUP1 DUP3 MSTORE DUP2 DUP2 ADD MSTORE PUSH32 0x4669786564506F696E743A204449565F42595F5A45524F5F4652414354494F4E PUSH1 0x40 DUP3 ADD MSTORE PUSH1 0x60 ADD SWAP1 JUMP JUMPDEST PUSH1 0x20 DUP1 DUP3 MSTORE PUSH1 0x1E SWAP1 DUP3 ADD MSTORE PUSH32 0x4669786564506F696E743A204D554C55515F4F564552464C4F575F53554D0000 PUSH1 0x40 DUP3 ADD MSTORE PUSH1 0x60 ADD SWAP1 JUMP JUMPDEST SWAP1 MLOAD PUSH28 0xFFFFFFFFFFFFFFFFFFFFFFFFFFFFFFFFFFFFFFFFFFFFFFFFFFFFFFFF AND DUP2 MSTORE PUSH1 0x20 ADD SWAP1 JUMP JUMPDEST SWAP1 MLOAD DUP2 MSTORE PUSH1 0x20 ADD SWAP1 JUMP JUMPDEST PUSH14 0xFFFFFFFFFFFFFFFFFFFFFFFFFFFF SWAP2 SWAP1 SWAP2 AND DUP2 MSTORE PUSH1 0x20 ADD SWAP1 JUMP JUMPDEST PUSH18 0xFFFFFFFFFFFFFFFFFFFFFFFFFFFFFFFFFFFF SWAP2 SWAP1 SWAP2 AND DUP2 MSTORE PUSH1 0x20 ADD SWAP1 JUMP JUMPDEST PUSH1 0x40 MLOAD DUP2 DUP2 ADD PUSH8 0xFFFFFFFFFFFFFFFF DUP2 GT DUP3 DUP3 LT OR ISZERO PUSH2 0x1554 JUMPI PUSH1 0x0 DUP1 REVERT JUMPDEST PUSH1 0x40 MSTORE SWAP2 SWAP1 POP JUMP INVALID LOG2 PUSH5 0x6970667358 0x22 SLT KECCAK256 DELEGATECALL DIV PUSH22 0x483FF9A3C9D7BECC325677A0919D48F5AF12475CB16A SWAP8 0xE5 RETURNDATACOPY 0xD9 0xCA DUP5 MULMOD PUSH5 0x736F6C6343 STOP MOD 0xC STOP CALLER "
    }
  }
}